{
    "_format": "hh-sol-artifact-1",
    "contractName": "SuperAppPOC",
    "sourceName": "contracts/SuperApp.sol",
    "abi": [
        {
            "inputs": [
                {
                    "internalType": "contract ISuperfluid",
                    "name": "host",
                    "type": "address"
                },
                {
                    "internalType": "contract ISuperToken",
                    "name": "acceptedToken",
                    "type": "address"
                },
                {
                    "internalType": "address",
                    "name": "receiver",
                    "type": "address"
                }
            ],
            "stateMutability": "payable",
            "type": "constructor"
        },
        {
            "anonymous": false,
            "inputs": [
                {
                    "indexed": false,
                    "internalType": "contract ISuperToken",
                    "name": "_superToken",
                    "type": "address"
                },
                {
                    "indexed": false,
                    "internalType": "string",
                    "name": "message",
                    "type": "string"
                }
            ],
            "name": "StreamInitiated",
            "type": "event"
        },
        {
            "inputs": [],
            "name": "CFA_ID",
            "outputs": [
                {
                    "internalType": "bytes32",
                    "name": "",
                    "type": "bytes32"
                }
            ],
            "stateMutability": "view",
            "type": "function"
        },
        {
            "inputs": [],
            "name": "_receiver",
            "outputs": [
                {
                    "internalType": "address",
                    "name": "",
                    "type": "address"
                }
            ],
            "stateMutability": "view",
            "type": "function"
        },
        {
            "inputs": [
                {
                    "internalType": "contract ISuperToken",
                    "name": "_superToken",
                    "type": "address"
                },
                {
                    "internalType": "address",
                    "name": "_agreementClass",
                    "type": "address"
                },
                {
                    "internalType": "bytes32",
                    "name": "",
                    "type": "bytes32"
                },
                {
                    "internalType": "bytes",
                    "name": "",
                    "type": "bytes"
                },
                {
                    "internalType": "bytes",
                    "name": "",
                    "type": "bytes"
                },
                {
                    "internalType": "bytes",
                    "name": "_ctx",
                    "type": "bytes"
                }
            ],
            "name": "afterAgreementCreated",
            "outputs": [
                {
                    "internalType": "bytes",
                    "name": "newCtx",
                    "type": "bytes"
                }
            ],
            "stateMutability": "nonpayable",
            "type": "function"
        },
        {
            "inputs": [
                {
                    "internalType": "contract ISuperToken",
                    "name": "",
                    "type": "address"
                },
                {
                    "internalType": "address",
                    "name": "",
                    "type": "address"
                },
                {
                    "internalType": "bytes32",
                    "name": "",
                    "type": "bytes32"
                },
                {
                    "internalType": "bytes",
                    "name": "",
                    "type": "bytes"
                },
                {
                    "internalType": "bytes",
                    "name": "",
                    "type": "bytes"
                },
                {
                    "internalType": "bytes",
                    "name": "",
                    "type": "bytes"
                }
            ],
            "name": "afterAgreementTerminated",
            "outputs": [
                {
                    "internalType": "bytes",
                    "name": "",
                    "type": "bytes"
                }
            ],
            "stateMutability": "nonpayable",
            "type": "function"
        },
        {
            "inputs": [
                {
                    "internalType": "contract ISuperToken",
                    "name": "",
                    "type": "address"
                },
                {
                    "internalType": "address",
                    "name": "",
                    "type": "address"
                },
                {
                    "internalType": "bytes32",
                    "name": "",
                    "type": "bytes32"
                },
                {
                    "internalType": "bytes",
                    "name": "",
                    "type": "bytes"
                },
                {
                    "internalType": "bytes",
                    "name": "",
                    "type": "bytes"
                },
                {
                    "internalType": "bytes",
                    "name": "",
                    "type": "bytes"
                }
            ],
            "name": "afterAgreementUpdated",
            "outputs": [
                {
                    "internalType": "bytes",
                    "name": "",
                    "type": "bytes"
                }
            ],
            "stateMutability": "nonpayable",
            "type": "function"
        },
        {
            "inputs": [
                {
                    "internalType": "address",
                    "name": "owner",
                    "type": "address"
                },
                {
                    "internalType": "address",
                    "name": "delegate",
                    "type": "address"
                }
            ],
            "name": "allowance",
            "outputs": [
                {
                    "internalType": "uint256",
                    "name": "",
                    "type": "uint256"
                }
            ],
            "stateMutability": "view",
            "type": "function"
        },
        {
            "inputs": [
                {
                    "internalType": "address",
                    "name": "delegate",
                    "type": "address"
                },
                {
                    "internalType": "uint256",
                    "name": "numTokens",
                    "type": "uint256"
                }
            ],
            "name": "approve",
            "outputs": [
                {
                    "internalType": "bool",
                    "name": "",
                    "type": "bool"
                }
            ],
            "stateMutability": "nonpayable",
            "type": "function"
        },
        {
            "inputs": [
                {
                    "internalType": "contract ISuperToken",
                    "name": "",
                    "type": "address"
                },
                {
                    "internalType": "address",
                    "name": "",
                    "type": "address"
                },
                {
                    "internalType": "bytes32",
                    "name": "",
                    "type": "bytes32"
                },
                {
                    "internalType": "bytes",
                    "name": "",
                    "type": "bytes"
                },
                {
                    "internalType": "bytes",
                    "name": "",
                    "type": "bytes"
                }
            ],
            "name": "beforeAgreementCreated",
            "outputs": [
                {
                    "internalType": "bytes",
                    "name": "",
                    "type": "bytes"
                }
            ],
            "stateMutability": "view",
            "type": "function"
        },
        {
            "inputs": [
                {
                    "internalType": "contract ISuperToken",
                    "name": "",
                    "type": "address"
                },
                {
                    "internalType": "address",
                    "name": "",
                    "type": "address"
                },
                {
                    "internalType": "bytes32",
                    "name": "",
                    "type": "bytes32"
                },
                {
                    "internalType": "bytes",
                    "name": "",
                    "type": "bytes"
                },
                {
                    "internalType": "bytes",
                    "name": "",
                    "type": "bytes"
                }
            ],
            "name": "beforeAgreementTerminated",
            "outputs": [
                {
                    "internalType": "bytes",
                    "name": "",
                    "type": "bytes"
                }
            ],
            "stateMutability": "view",
            "type": "function"
        },
        {
            "inputs": [
                {
                    "internalType": "contract ISuperToken",
                    "name": "",
                    "type": "address"
                },
                {
                    "internalType": "address",
                    "name": "",
                    "type": "address"
                },
                {
                    "internalType": "bytes32",
                    "name": "",
                    "type": "bytes32"
                },
                {
                    "internalType": "bytes",
                    "name": "",
                    "type": "bytes"
                },
                {
                    "internalType": "bytes",
                    "name": "",
                    "type": "bytes"
                }
            ],
            "name": "beforeAgreementUpdated",
            "outputs": [
                {
                    "internalType": "bytes",
                    "name": "",
                    "type": "bytes"
                }
            ],
            "stateMutability": "view",
            "type": "function"
        },
        {
            "inputs": [],
            "name": "cfaV1",
            "outputs": [
                {
                    "internalType": "contract ISuperfluid",
                    "name": "host",
                    "type": "address"
                },
                {
                    "internalType": "contract IConstantFlowAgreementV1",
                    "name": "cfa",
                    "type": "address"
                }
            ],
            "stateMutability": "view",
            "type": "function"
        },
        {
            "inputs": [],
            "name": "daiAddress",
            "outputs": [
                {
                    "internalType": "address",
                    "name": "",
                    "type": "address"
                }
            ],
            "stateMutability": "view",
            "type": "function"
        },
        {
            "inputs": [],
            "name": "daixAddress",
            "outputs": [
                {
                    "internalType": "address",
                    "name": "",
                    "type": "address"
                }
            ],
            "stateMutability": "view",
            "type": "function"
        },
        {
            "inputs": [
                {
                    "internalType": "uint256",
                    "name": "_amount",
                    "type": "uint256"
                }
            ],
            "name": "transfer",
            "outputs": [],
            "stateMutability": "nonpayable",
            "type": "function"
        },
        {
            "inputs": [
                {
                    "internalType": "contract ISuperToken",
                    "name": "_superToken",
                    "type": "address"
                }
            ],
            "name": "unwrap",
            "outputs": [],
            "stateMutability": "nonpayable",
            "type": "function"
        }
    ],
    "bytecode": "0x60806040527315f0ca26781c3852f8166ed2ebce5d18265cceb7600460006101000a81548173ffffffffffffffffffffffffffffffffffffffff021916908373ffffffffffffffffffffffffffffffffffffffff160217905550735d8b4c2554aeb7e86f387b4d6c00ac33499ed01f600560006101000a81548173ffffffffffffffffffffffffffffffffffffffff021916908373ffffffffffffffffffffffffffffffffffffffff1602179055506040516200200c3803806200200c8339818101604052810190620000d391906200051c565b600073ffffffffffffffffffffffffffffffffffffffff168373ffffffffffffffffffffffffffffffffffffffff160362000113576200011262000578565b5b600073ffffffffffffffffffffffffffffffffffffffff168273ffffffffffffffffffffffffffffffffffffffff160362000153576200015262000578565b5b600073ffffffffffffffffffffffffffffffffffffffff168173ffffffffffffffffffffffffffffffffffffffff160362000193576200019262000578565b5b81600260006101000a81548173ffffffffffffffffffffffffffffffffffffffff021916908373ffffffffffffffffffffffffffffffffffffffff16021790555080600360006101000a81548173ffffffffffffffffffffffffffffffffffffffff021916908373ffffffffffffffffffffffffffffffffffffffff16021790555060405180604001604052808473ffffffffffffffffffffffffffffffffffffffff1681526020018473ffffffffffffffffffffffffffffffffffffffff1663b6d200de7fa9214cc96615e0085d3bb077758db69497dc2dce3b2b1e97bc93c3d18d83efd36040518263ffffffff1660e01b8152600401620002979190620005c2565b602060405180830381865afa158015620002b5573d6000803e3d6000fd5b505050506040513d601f19601f82011682018060405250810190620002db919062000624565b73ffffffffffffffffffffffffffffffffffffffff168152506000808201518160000160006101000a81548173ffffffffffffffffffffffffffffffffffffffff021916908373ffffffffffffffffffffffffffffffffffffffff16021790555060208201518160010160006101000a81548173ffffffffffffffffffffffffffffffffffffffff021916908373ffffffffffffffffffffffffffffffffffffffff16021790555090505060006420000000006408000000006410000000006404000000006401000000006001171717171790508373ffffffffffffffffffffffffffffffffffffffff1663ad3915c8826040518263ffffffff1660e01b8152600401620003ea919062000671565b600060405180830381600087803b1580156200040557600080fd5b505af11580156200041a573d6000803e3d6000fd5b50505050505050506200068e565b600080fd5b600073ffffffffffffffffffffffffffffffffffffffff82169050919050565b60006200045a826200042d565b9050919050565b60006200046e826200044d565b9050919050565b620004808162000461565b81146200048c57600080fd5b50565b600081519050620004a08162000475565b92915050565b6000620004b3826200044d565b9050919050565b620004c581620004a6565b8114620004d157600080fd5b50565b600081519050620004e581620004ba565b92915050565b620004f6816200044d565b81146200050257600080fd5b50565b6000815190506200051681620004eb565b92915050565b60008060006060848603121562000538576200053762000428565b5b600062000548868287016200048f565b93505060206200055b86828701620004d4565b92505060406200056e8682870162000505565b9150509250925092565b7f4e487b7100000000000000000000000000000000000000000000000000000000600052600160045260246000fd5b6000819050919050565b620005bc81620005a7565b82525050565b6000602082019050620005d96000830184620005b1565b92915050565b6000620005ec826200044d565b9050919050565b620005fe81620005df565b81146200060a57600080fd5b50565b6000815190506200061e81620005f3565b92915050565b6000602082840312156200063d576200063c62000428565b5b60006200064d848285016200060d565b91505092915050565b6000819050919050565b6200066b8162000656565b82525050565b600060208201905062000688600083018462000660565b92915050565b61196e806200069e6000396000f3fe608060405234801561001057600080fd5b50600436106100f55760003560e01c806330d9c91511610097578063884d1f4011610066578063884d1f401461029a578063d3112b2e146102ca578063d86ed3e5146102e9578063dd62ed3e14610319576100f5565b806330d9c915146101ee57806353c11f991461021e5780635f9e7d771461024e57806375f26e631461027e576100f5565b80631eaf7be5116100d35780631eaf7be514610164578063215eed0214610182578063230dbd29146101a05780632c387275146101d0576100f5565b806302964ff1146100fa578063095ea7b31461011857806312514bba14610148575b600080fd5b610102610349565b60405161010f9190610bbe565b60405180910390f35b610132600480360381019061012d9190610c45565b61036f565b60405161013f9190610ca0565b60405180910390f35b610162600480360381019061015d9190610cbb565b6103fc565b005b61016c6105ed565b6040516101799190610bbe565b60405180910390f35b61018a610613565b6040516101979190610d01565b60405180910390f35b6101ba60048036038101906101b59190610deb565b610637565b6040516101c79190610f73565b60405180910390f35b6101d8610674565b6040516101e59190610bbe565b60405180910390f35b61020860048036038101906102039190610f95565b61069a565b6040516102159190610f73565b60405180910390f35b61023860048036038101906102339190610deb565b6106d7565b6040516102459190610f73565b60405180910390f35b61026860048036038101906102639190610f95565b610714565b6040516102759190610f73565b60405180910390f35b61029860048036038101906102939190611051565b610751565b005b6102b460048036038101906102af9190610f95565b6107c0565b6040516102c19190610f73565b60405180910390f35b6102d26107fd565b6040516102e09291906110fe565b60405180910390f35b61030360048036038101906102fe9190610deb565b61084f565b6040516103109190610f73565b60405180910390f35b610333600480360381019061032e9190611127565b610a02565b6040516103409190611176565b60405180910390f35b600360009054906101000a900473ffffffffffffffffffffffffffffffffffffffff1681565b600081600660003373ffffffffffffffffffffffffffffffffffffffff1673ffffffffffffffffffffffffffffffffffffffff16815260200190815260200160002060008573ffffffffffffffffffffffffffffffffffffffff1673ffffffffffffffffffffffffffffffffffffffff168152602001908152602001600020819055506001905092915050565b6000811161043f576040517f08c379a000000000000000000000000000000000000000000000000000000000815260040161043690611214565b60405180910390fd5b6000600460009054906101000a900473ffffffffffffffffffffffffffffffffffffffff1673ffffffffffffffffffffffffffffffffffffffff1663dd62ed3e33306040518363ffffffff1660e01b815260040161049e929190611234565b602060405180830381865afa1580156104bb573d6000803e3d6000fd5b505050506040513d601f19601f820116820180604052508101906104df9190611272565b905081811015610524576040517f08c379a000000000000000000000000000000000000000000000000000000000815260040161051b906112eb565b60405180910390fd5b600460009054906101000a900473ffffffffffffffffffffffffffffffffffffffff1673ffffffffffffffffffffffffffffffffffffffff166323b872dd30600360009054906101000a900473ffffffffffffffffffffffffffffffffffffffff16856040518463ffffffff1660e01b81526004016105a59392919061130b565b6020604051808303816000875af11580156105c4573d6000803e3d6000fd5b505050506040513d601f19601f820116820180604052508101906105e8919061136e565b505050565b600560009054906101000a900473ffffffffffffffffffffffffffffffffffffffff1681565b7fa9214cc96615e0085d3bb077758db69497dc2dce3b2b1e97bc93c3d18d83efd381565b60606040517f08c379a000000000000000000000000000000000000000000000000000000000815260040161066b9061140d565b60405180910390fd5b600460009054906101000a900473ffffffffffffffffffffffffffffffffffffffff1681565b60606040517f08c379a00000000000000000000000000000000000000000000000000000000081526004016106ce9061149f565b60405180910390fd5b60606040517f08c379a000000000000000000000000000000000000000000000000000000000815260040161070b90611531565b60405180910390fd5b60606040517f08c379a0000000000000000000000000000000000000000000000000000000008152600401610748906115c3565b60405180910390fd5b8073ffffffffffffffffffffffffffffffffffffffff166311bcc81e60016040518263ffffffff1660e01b815260040161078b919061161e565b600060405180830381600087803b1580156107a557600080fd5b505af11580156107b9573d6000803e3d6000fd5b5050505050565b60606040517f08c379a00000000000000000000000000000000000000000000000000000000081526004016107f4906116ab565b60405180910390fd5b60008060000160009054906101000a900473ffffffffffffffffffffffffffffffffffffffff16908060010160009054906101000a900473ffffffffffffffffffffffffffffffffffffffff16905082565b6060898961085c82610a89565b61089b576040517f08c379a000000000000000000000000000000000000000000000000000000000815260040161089290611717565b60405180910390fd5b6108a481610ae3565b6108e3576040517f08c379a00000000000000000000000000000000000000000000000000000000081526004016108da906117a9565b60405180910390fd5b6000800160009054906101000a900473ffffffffffffffffffffffffffffffffffffffff1673ffffffffffffffffffffffffffffffffffffffff163373ffffffffffffffffffffffffffffffffffffffff1614610975576040517f08c379a000000000000000000000000000000000000000000000000000000000815260040161096c9061183b565b60405180910390fd5b7f0e4d5656e4be0cba5c83a8380b9fcd3d346e14376d9031167adc87d6914dae788c6040516109a491906118c8565b60405180910390a184848080601f016020809104026020016040519081016040528093929190818152602001838380828437600081840152601f19601f82011690508083019250505050505050925050509998505050505050505050565b6000600660008473ffffffffffffffffffffffffffffffffffffffff1673ffffffffffffffffffffffffffffffffffffffff16815260200190815260200160002060008373ffffffffffffffffffffffffffffffffffffffff1673ffffffffffffffffffffffffffffffffffffffff16815260200190815260200160002054905092915050565b6000600260009054906101000a900473ffffffffffffffffffffffffffffffffffffffff1673ffffffffffffffffffffffffffffffffffffffff168273ffffffffffffffffffffffffffffffffffffffff16149050919050565b60007fa9214cc96615e0085d3bb077758db69497dc2dce3b2b1e97bc93c3d18d83efd38273ffffffffffffffffffffffffffffffffffffffff16637730599e6040518163ffffffff1660e01b8152600401602060405180830381865afa158015610b51573d6000803e3d6000fd5b505050506040513d601f19601f82011682018060405250810190610b75919061190b565b149050919050565b600073ffffffffffffffffffffffffffffffffffffffff82169050919050565b6000610ba882610b7d565b9050919050565b610bb881610b9d565b82525050565b6000602082019050610bd36000830184610baf565b92915050565b600080fd5b600080fd5b610bec81610b9d565b8114610bf757600080fd5b50565b600081359050610c0981610be3565b92915050565b6000819050919050565b610c2281610c0f565b8114610c2d57600080fd5b50565b600081359050610c3f81610c19565b92915050565b60008060408385031215610c5c57610c5b610bd9565b5b6000610c6a85828601610bfa565b9250506020610c7b85828601610c30565b9150509250929050565b60008115159050919050565b610c9a81610c85565b82525050565b6000602082019050610cb56000830184610c91565b92915050565b600060208284031215610cd157610cd0610bd9565b5b6000610cdf84828501610c30565b91505092915050565b6000819050919050565b610cfb81610ce8565b82525050565b6000602082019050610d166000830184610cf2565b92915050565b6000610d2782610b9d565b9050919050565b610d3781610d1c565b8114610d4257600080fd5b50565b600081359050610d5481610d2e565b92915050565b610d6381610ce8565b8114610d6e57600080fd5b50565b600081359050610d8081610d5a565b92915050565b600080fd5b600080fd5b600080fd5b60008083601f840112610dab57610daa610d86565b5b8235905067ffffffffffffffff811115610dc857610dc7610d8b565b5b602083019150836001820283011115610de457610de3610d90565b5b9250929050565b600080600080600080600080600060c08a8c031215610e0d57610e0c610bd9565b5b6000610e1b8c828d01610d45565b9950506020610e2c8c828d01610bfa565b9850506040610e3d8c828d01610d71565b97505060608a013567ffffffffffffffff811115610e5e57610e5d610bde565b5b610e6a8c828d01610d95565b965096505060808a013567ffffffffffffffff811115610e8d57610e8c610bde565b5b610e998c828d01610d95565b945094505060a08a013567ffffffffffffffff811115610ebc57610ebb610bde565b5b610ec88c828d01610d95565b92509250509295985092959850929598565b600081519050919050565b600082825260208201905092915050565b60005b83811015610f14578082015181840152602081019050610ef9565b83811115610f23576000848401525b50505050565b6000601f19601f8301169050919050565b6000610f4582610eda565b610f4f8185610ee5565b9350610f5f818560208601610ef6565b610f6881610f29565b840191505092915050565b60006020820190508181036000830152610f8d8184610f3a565b905092915050565b600080600080600080600060a0888a031215610fb457610fb3610bd9565b5b6000610fc28a828b01610d45565b9750506020610fd38a828b01610bfa565b9650506040610fe48a828b01610d71565b955050606088013567ffffffffffffffff81111561100557611004610bde565b5b6110118a828b01610d95565b9450945050608088013567ffffffffffffffff81111561103457611033610bde565b5b6110408a828b01610d95565b925092505092959891949750929550565b60006020828403121561106757611066610bd9565b5b600061107584828501610d45565b91505092915050565b6000819050919050565b60006110a361109e61109984610b7d565b61107e565b610b7d565b9050919050565b60006110b582611088565b9050919050565b60006110c7826110aa565b9050919050565b6110d7816110bc565b82525050565b60006110e8826110aa565b9050919050565b6110f8816110dd565b82525050565b600060408201905061111360008301856110ce565b61112060208301846110ef565b9392505050565b6000806040838503121561113e5761113d610bd9565b5b600061114c85828601610bfa565b925050602061115d85828601610bfa565b9150509250929050565b61117081610c0f565b82525050565b600060208201905061118b6000830184611167565b92915050565b600082825260208201905092915050565b7f596f75206e65656420746f2073656c6c206174206c6561737420736f6d65207460008201527f6f6b656e73000000000000000000000000000000000000000000000000000000602082015250565b60006111fe602583611191565b9150611209826111a2565b604082019050919050565b6000602082019050818103600083015261122d816111f1565b9050919050565b60006040820190506112496000830185610baf565b6112566020830184610baf565b9392505050565b60008151905061126c81610c19565b92915050565b60006020828403121561128857611287610bd9565b5b60006112968482850161125d565b91505092915050565b7f436865636b2074686520746f6b656e20616c6c6f77616e636500000000000000600082015250565b60006112d5601983611191565b91506112e08261129f565b602082019050919050565b60006020820190508181036000830152611304816112c8565b9050919050565b60006060820190506113206000830186610baf565b61132d6020830185610baf565b61133a6040830184611167565b949350505050565b61134b81610c85565b811461135657600080fd5b50565b60008151905061136881611342565b92915050565b60006020828403121561138457611383610bd9565b5b600061139284828501611359565b91505092915050565b7f556e737570706f727465642063616c6c6261636b202d2041667465722041677260008201527f65656d656e742055706461746564000000000000000000000000000000000000602082015250565b60006113f7602e83611191565b91506114028261139b565b604082019050919050565b60006020820190508181036000830152611426816113ea565b9050919050565b7f556e737570706f727465642063616c6c6261636b202d204265666f726520416760008201527f7265656d656e7420437265617465640000000000000000000000000000000000602082015250565b6000611489602f83611191565b91506114948261142d565b604082019050919050565b600060208201905081810360008301526114b88161147c565b9050919050565b7f556e737570706f727465642063616c6c6261636b202d2041667465722041677260008201527f65656d656e74205465726d696e61746564000000000000000000000000000000602082015250565b600061151b603183611191565b9150611526826114bf565b604082019050919050565b6000602082019050818103600083015261154a8161150e565b9050919050565b7f556e737570706f727465642063616c6c6261636b202d20204265666f7265204160008201527f677265656d656e74205465726d696e6174656400000000000000000000000000602082015250565b60006115ad603383611191565b91506115b882611551565b604082019050919050565b600060208201905081810360008301526115dc816115a0565b9050919050565b6000819050919050565b60006116086116036115fe846115e3565b61107e565b610c0f565b9050919050565b611618816115ed565b82525050565b6000602082019050611633600083018461160f565b92915050565b7f556e737570706f727465642063616c6c6261636b202d204265666f726520416760008201527f7265656d656e7420757064617465640000000000000000000000000000000000602082015250565b6000611695602f83611191565b91506116a082611639565b604082019050919050565b600060208201905081810360008301526116c481611688565b9050919050565b7f5265646972656374416c6c3a206e6f7420616363657074656420746f6b656e00600082015250565b6000611701601f83611191565b915061170c826116cb565b602082019050919050565b60006020820190508181036000830152611730816116f4565b9050919050565b7f5265646972656374416c6c3a206f6e6c7920434641763120737570706f72746560008201527f6400000000000000000000000000000000000000000000000000000000000000602082015250565b6000611793602183611191565b915061179e82611737565b604082019050919050565b600060208201905081810360008301526117c281611786565b9050919050565b7f5265646972656374416c6c3a20737570706f7274206f6e6c79206f6e6520686f60008201527f7374000000000000000000000000000000000000000000000000000000000000602082015250565b6000611825602283611191565b9150611830826117c9565b604082019050919050565b6000602082019050818103600083015261185481611818565b9050919050565b6000611866826110aa565b9050919050565b6118768161185b565b82525050565b7f53747265616d20696e69746961746564207375636365737366756c6c79000000600082015250565b60006118b2601d83611191565b91506118bd8261187c565b602082019050919050565b60006040820190506118dd600083018461186d565b81810360208301526118ee816118a5565b905092915050565b60008151905061190581610d5a565b92915050565b60006020828403121561192157611920610bd9565b5b600061192f848285016118f6565b9150509291505056fea26469706673582212206ee6a63c9a60e1ce567cc83a327097c6d4e67472985531c89d8bd644e8073ccd64736f6c634300080d0033",
    "linkReferences": {},
    "deployedLinkReferences": {}
}